{
  "_format": "hh-sol-artifact-1",
  "contractName": "MockNFT",
  "sourceName": "contracts/mock/MockNFT.sol",
  "abi": [
    {
      "inputs": [],
      "stateMutability": "nonpayable",
      "type": "constructor"
    },
    {
      "anonymous": false,
      "inputs": [
        {
          "indexed": true,
          "internalType": "address",
          "name": "owner",
          "type": "address"
        },
        {
          "indexed": true,
          "internalType": "address",
          "name": "approved",
          "type": "address"
        },
        {
          "indexed": true,
          "internalType": "uint256",
          "name": "tokenId",
          "type": "uint256"
        }
      ],
      "name": "Approval",
      "type": "event"
    },
    {
      "anonymous": false,
      "inputs": [
        {
          "indexed": true,
          "internalType": "address",
          "name": "owner",
          "type": "address"
        },
        {
          "indexed": true,
          "internalType": "address",
          "name": "operator",
          "type": "address"
        },
        {
          "indexed": false,
          "internalType": "bool",
          "name": "approved",
          "type": "bool"
        }
      ],
      "name": "ApprovalForAll",
      "type": "event"
    },
    {
      "anonymous": false,
      "inputs": [
        {
          "indexed": true,
          "internalType": "address",
          "name": "previousOwner",
          "type": "address"
        },
        {
          "indexed": true,
          "internalType": "address",
          "name": "newOwner",
          "type": "address"
        }
      ],
      "name": "OwnershipTransferred",
      "type": "event"
    },
    {
      "anonymous": false,
      "inputs": [
        {
          "indexed": true,
          "internalType": "address",
          "name": "from",
          "type": "address"
        },
        {
          "indexed": true,
          "internalType": "address",
          "name": "to",
          "type": "address"
        },
        {
          "indexed": true,
          "internalType": "uint256",
          "name": "tokenId",
          "type": "uint256"
        }
      ],
      "name": "Transfer",
      "type": "event"
    },
    {
      "inputs": [
        {
          "internalType": "address",
          "name": "to",
          "type": "address"
        },
        {
          "internalType": "uint256",
          "name": "tokenId",
          "type": "uint256"
        }
      ],
      "name": "approve",
      "outputs": [],
      "stateMutability": "nonpayable",
      "type": "function"
    },
    {
      "inputs": [
        {
          "internalType": "address",
          "name": "owner",
          "type": "address"
        }
      ],
      "name": "balanceOf",
      "outputs": [
        {
          "internalType": "uint256",
          "name": "",
          "type": "uint256"
        }
      ],
      "stateMutability": "view",
      "type": "function"
    },
    {
      "inputs": [
        {
          "internalType": "uint256",
          "name": "tokenId",
          "type": "uint256"
        }
      ],
      "name": "getApproved",
      "outputs": [
        {
          "internalType": "address",
          "name": "",
          "type": "address"
        }
      ],
      "stateMutability": "view",
      "type": "function"
    },
    {
      "inputs": [
        {
          "internalType": "address",
          "name": "owner",
          "type": "address"
        },
        {
          "internalType": "address",
          "name": "operator",
          "type": "address"
        }
      ],
      "name": "isApprovedForAll",
      "outputs": [
        {
          "internalType": "bool",
          "name": "",
          "type": "bool"
        }
      ],
      "stateMutability": "view",
      "type": "function"
    },
    {
      "inputs": [],
      "name": "name",
      "outputs": [
        {
          "internalType": "string",
          "name": "",
          "type": "string"
        }
      ],
      "stateMutability": "view",
      "type": "function"
    },
    {
      "inputs": [],
      "name": "owner",
      "outputs": [
        {
          "internalType": "address",
          "name": "",
          "type": "address"
        }
      ],
      "stateMutability": "view",
      "type": "function"
    },
    {
      "inputs": [
        {
          "internalType": "uint256",
          "name": "tokenId",
          "type": "uint256"
        }
      ],
      "name": "ownerOf",
      "outputs": [
        {
          "internalType": "address",
          "name": "",
          "type": "address"
        }
      ],
      "stateMutability": "view",
      "type": "function"
    },
    {
      "inputs": [],
      "name": "renounceOwnership",
      "outputs": [],
      "stateMutability": "nonpayable",
      "type": "function"
    },
    {
      "inputs": [
        {
          "internalType": "address",
          "name": "to",
          "type": "address"
        },
        {
          "internalType": "uint256",
          "name": "amount",
          "type": "uint256"
        }
      ],
      "name": "safeMint",
      "outputs": [],
      "stateMutability": "nonpayable",
      "type": "function"
    },
    {
      "inputs": [
        {
          "internalType": "address",
          "name": "from",
          "type": "address"
        },
        {
          "internalType": "address",
          "name": "to",
          "type": "address"
        },
        {
          "internalType": "uint256",
          "name": "tokenId",
          "type": "uint256"
        }
      ],
      "name": "safeTransferFrom",
      "outputs": [],
      "stateMutability": "nonpayable",
      "type": "function"
    },
    {
      "inputs": [
        {
          "internalType": "address",
          "name": "from",
          "type": "address"
        },
        {
          "internalType": "address",
          "name": "to",
          "type": "address"
        },
        {
          "internalType": "uint256",
          "name": "tokenId",
          "type": "uint256"
        },
        {
          "internalType": "bytes",
          "name": "_data",
          "type": "bytes"
        }
      ],
      "name": "safeTransferFrom",
      "outputs": [],
      "stateMutability": "nonpayable",
      "type": "function"
    },
    {
      "inputs": [
        {
          "internalType": "address",
          "name": "operator",
          "type": "address"
        },
        {
          "internalType": "bool",
          "name": "approved",
          "type": "bool"
        }
      ],
      "name": "setApprovalForAll",
      "outputs": [],
      "stateMutability": "nonpayable",
      "type": "function"
    },
    {
      "inputs": [
        {
          "internalType": "bytes4",
          "name": "interfaceId",
          "type": "bytes4"
        }
      ],
      "name": "supportsInterface",
      "outputs": [
        {
          "internalType": "bool",
          "name": "",
          "type": "bool"
        }
      ],
      "stateMutability": "view",
      "type": "function"
    },
    {
      "inputs": [],
      "name": "symbol",
      "outputs": [
        {
          "internalType": "string",
          "name": "",
          "type": "string"
        }
      ],
      "stateMutability": "view",
      "type": "function"
    },
    {
      "inputs": [
        {
          "internalType": "uint256",
          "name": "index",
          "type": "uint256"
        }
      ],
      "name": "tokenByIndex",
      "outputs": [
        {
          "internalType": "uint256",
          "name": "",
          "type": "uint256"
        }
      ],
      "stateMutability": "view",
      "type": "function"
    },
    {
      "inputs": [
        {
          "internalType": "address",
          "name": "owner",
          "type": "address"
        },
        {
          "internalType": "uint256",
          "name": "index",
          "type": "uint256"
        }
      ],
      "name": "tokenOfOwnerByIndex",
      "outputs": [
        {
          "internalType": "uint256",
          "name": "",
          "type": "uint256"
        }
      ],
      "stateMutability": "view",
      "type": "function"
    },
    {
      "inputs": [
        {
          "internalType": "uint256",
          "name": "tokenId",
          "type": "uint256"
        }
      ],
      "name": "tokenURI",
      "outputs": [
        {
          "internalType": "string",
          "name": "",
          "type": "string"
        }
      ],
      "stateMutability": "view",
      "type": "function"
    },
    {
      "inputs": [],
      "name": "totalSupply",
      "outputs": [
        {
          "internalType": "uint256",
          "name": "",
          "type": "uint256"
        }
      ],
      "stateMutability": "view",
      "type": "function"
    },
    {
      "inputs": [
        {
          "internalType": "address",
          "name": "from",
          "type": "address"
        },
        {
          "internalType": "address",
          "name": "to",
          "type": "address"
        },
        {
          "internalType": "uint256",
          "name": "tokenId",
          "type": "uint256"
        }
      ],
      "name": "transferFrom",
      "outputs": [],
      "stateMutability": "nonpayable",
      "type": "function"
    },
    {
      "inputs": [
        {
          "internalType": "address",
          "name": "newOwner",
          "type": "address"
        }
      ],
      "name": "transferOwnership",
      "outputs": [],
      "stateMutability": "nonpayable",
      "type": "function"
    }
  ],
  "bytecode": "0x60806040523480156200001157600080fd5b506040805180820182526007815266135bd8dad3919560ca1b6020808301918252835180850190945260048452631353919560e21b9084015281519192916200005d91600091620000ec565b50805162000073906001906020840190620000ec565b505050620000906200008a6200009660201b60201c565b6200009a565b620001cf565b3390565b600a80546001600160a01b038381166001600160a01b0319831681179093556040519116919082907f8be0079c531659141344cd1fd0a4f28419497f9722a3daafe3b4186f6b6457e090600090a35050565b828054620000fa9062000192565b90600052602060002090601f0160209004810192826200011e576000855562000169565b82601f106200013957805160ff191683800117855562000169565b8280016001018555821562000169579182015b82811115620001695782518255916020019190600101906200014c565b50620001779291506200017b565b5090565b5b808211156200017757600081556001016200017c565b600181811c90821680620001a757607f821691505b60208210811415620001c957634e487b7160e01b600052602260045260246000fd5b50919050565b611a4880620001df6000396000f3fe608060405234801561001057600080fd5b506004361061012c5760003560e01c806370a08231116100ad578063a22cb46511610071578063a22cb46514610266578063b88d4fde14610279578063c87b56dd1461028c578063e985e9c51461029f578063f2fde38b146102db57600080fd5b806370a082311461021f578063715018a6146102325780638da5cb5b1461023a57806395d89b411461024b578063a14481941461025357600080fd5b806323b872dd116100f457806323b872dd146101c05780632f745c59146101d357806342842e0e146101e65780634f6ccce7146101f95780636352211e1461020c57600080fd5b806301ffc9a71461013157806306fdde0314610159578063081812fc1461016e578063095ea7b31461019957806318160ddd146101ae575b600080fd5b61014461013f366004611542565b6102ee565b60405190151581526020015b60405180910390f35b6101616102ff565b60405161015091906115b7565b61018161017c3660046115ca565b610391565b6040516001600160a01b039091168152602001610150565b6101ac6101a73660046115ff565b61042b565b005b6008545b604051908152602001610150565b6101ac6101ce366004611629565b610541565b6101b26101e13660046115ff565b610572565b6101ac6101f4366004611629565b610608565b6101b26102073660046115ca565b610623565b61018161021a3660046115ca565b6106b6565b6101b261022d366004611665565b61072d565b6101ac6107b4565b600a546001600160a01b0316610181565b61016161081a565b6101ac6102613660046115ff565b610829565b6101ac610274366004611680565b610864565b6101ac6102873660046116d2565b610873565b61016161029a3660046115ca565b6108ab565b6101446102ad3660046117ae565b6001600160a01b03918216600090815260056020908152604080832093909416825291909152205460ff1690565b6101ac6102e9366004611665565b610993565b60006102f982610a5e565b92915050565b60606000805461030e906117e1565b80601f016020809104026020016040519081016040528092919081815260200182805461033a906117e1565b80156103875780601f1061035c57610100808354040283529160200191610387565b820191906000526020600020905b81548152906001019060200180831161036a57829003601f168201915b5050505050905090565b6000818152600260205260408120546001600160a01b031661040f5760405162461bcd60e51b815260206004820152602c60248201527f4552433732313a20617070726f76656420717565727920666f72206e6f6e657860448201526b34b9ba32b73a103a37b5b2b760a11b60648201526084015b60405180910390fd5b506000908152600460205260409020546001600160a01b031690565b6000610436826106b6565b9050806001600160a01b0316836001600160a01b031614156104a45760405162461bcd60e51b815260206004820152602160248201527f4552433732313a20617070726f76616c20746f2063757272656e74206f776e656044820152603960f91b6064820152608401610406565b336001600160a01b03821614806104c057506104c081336102ad565b6105325760405162461bcd60e51b815260206004820152603860248201527f4552433732313a20617070726f76652063616c6c6572206973206e6f74206f7760448201527f6e6572206e6f7220617070726f76656420666f7220616c6c00000000000000006064820152608401610406565b61053c8383610a83565b505050565b61054b3382610af1565b6105675760405162461bcd60e51b81526004016104069061181c565b61053c838383610be8565b600061057d8361072d565b82106105df5760405162461bcd60e51b815260206004820152602b60248201527f455243373231456e756d657261626c653a206f776e657220696e646578206f7560448201526a74206f6620626f756e647360a81b6064820152608401610406565b506001600160a01b03919091166000908152600660209081526040808320938352929052205490565b61053c83838360405180602001604052806000815250610873565b600061062e60085490565b82106106915760405162461bcd60e51b815260206004820152602c60248201527f455243373231456e756d657261626c653a20676c6f62616c20696e646578206f60448201526b7574206f6620626f756e647360a01b6064820152608401610406565b600882815481106106a4576106a461186d565b90600052602060002001549050919050565b6000818152600260205260408120546001600160a01b0316806102f95760405162461bcd60e51b815260206004820152602960248201527f4552433732313a206f776e657220717565727920666f72206e6f6e657869737460448201526832b73a103a37b5b2b760b91b6064820152608401610406565b60006001600160a01b0382166107985760405162461bcd60e51b815260206004820152602a60248201527f4552433732313a2062616c616e636520717565727920666f7220746865207a65604482015269726f206164647265737360b01b6064820152608401610406565b506001600160a01b031660009081526003602052604090205490565b600a546001600160a01b0316331461080e5760405162461bcd60e51b815260206004820181905260248201527f4f776e61626c653a2063616c6c6572206973206e6f7420746865206f776e65726044820152606401610406565b6108186000610d8f565b565b60606001805461030e906117e1565b60005b8181101561053c57610842600b80546001019055565b6108548361084f600b5490565b610de1565b61085d81611899565b905061082c565b61086f338383610dfb565b5050565b61087d3383610af1565b6108995760405162461bcd60e51b81526004016104069061181c565b6108a584848484610eca565b50505050565b6000818152600260205260409020546060906001600160a01b031661092a5760405162461bcd60e51b815260206004820152602f60248201527f4552433732314d657461646174613a2055524920717565727920666f72206e6f60448201526e3732bc34b9ba32b73a103a37b5b2b760891b6064820152608401610406565b600061094160408051602081019091526000815290565b90506000815111610961576040518060200160405280600081525061098c565b8061096b84610efd565b60405160200161097c9291906118b4565b6040516020818303038152906040525b9392505050565b600a546001600160a01b031633146109ed5760405162461bcd60e51b815260206004820181905260248201527f4f776e61626c653a2063616c6c6572206973206e6f7420746865206f776e65726044820152606401610406565b6001600160a01b038116610a525760405162461bcd60e51b815260206004820152602660248201527f4f776e61626c653a206e6577206f776e657220697320746865207a65726f206160448201526564647265737360d01b6064820152608401610406565b610a5b81610d8f565b50565b60006001600160e01b0319821663780e9d6360e01b14806102f957506102f982610ffb565b600081815260046020526040902080546001600160a01b0319166001600160a01b0384169081179091558190610ab8826106b6565b6001600160a01b03167f8c5be1e5ebec7d5bd14f71427d1e84f3dd0314c0f7b2291e5b200ac8c7c3b92560405160405180910390a45050565b6000818152600260205260408120546001600160a01b0316610b6a5760405162461bcd60e51b815260206004820152602c60248201527f4552433732313a206f70657261746f7220717565727920666f72206e6f6e657860448201526b34b9ba32b73a103a37b5b2b760a11b6064820152608401610406565b6000610b75836106b6565b9050806001600160a01b0316846001600160a01b03161480610bbc57506001600160a01b0380821660009081526005602090815260408083209388168352929052205460ff165b80610be05750836001600160a01b0316610bd584610391565b6001600160a01b0316145b949350505050565b826001600160a01b0316610bfb826106b6565b6001600160a01b031614610c5f5760405162461bcd60e51b815260206004820152602560248201527f4552433732313a207472616e736665722066726f6d20696e636f72726563742060448201526437bbb732b960d91b6064820152608401610406565b6001600160a01b038216610cc15760405162461bcd60e51b8152602060048201526024808201527f4552433732313a207472616e7366657220746f20746865207a65726f206164646044820152637265737360e01b6064820152608401610406565b610ccc83838361104b565b610cd7600082610a83565b6001600160a01b0383166000908152600360205260408120805460019290610d009084906118e3565b90915550506001600160a01b0382166000908152600360205260408120805460019290610d2e9084906118fa565b909155505060008181526002602052604080822080546001600160a01b0319166001600160a01b0386811691821790925591518493918716917fddf252ad1be2c89b69c2b068fc378daa952ba7f163c4a11628f55a4df523b3ef91a4505050565b600a80546001600160a01b038381166001600160a01b0319831681179093556040519116919082907f8be0079c531659141344cd1fd0a4f28419497f9722a3daafe3b4186f6b6457e090600090a35050565b61086f828260405180602001604052806000815250611056565b816001600160a01b0316836001600160a01b03161415610e5d5760405162461bcd60e51b815260206004820152601960248201527f4552433732313a20617070726f766520746f2063616c6c6572000000000000006044820152606401610406565b6001600160a01b03838116600081815260056020908152604080832094871680845294825291829020805460ff191686151590811790915591519182527f17307eab39ab6107e8899845ad3d59bd9653f200f220920489ca2b5937696c31910160405180910390a3505050565b610ed5848484610be8565b610ee184848484611089565b6108a55760405162461bcd60e51b815260040161040690611912565b606081610f215750506040805180820190915260018152600360fc1b602082015290565b8160005b8115610f4b5780610f3581611899565b9150610f449050600a8361197a565b9150610f25565b60008167ffffffffffffffff811115610f6657610f666116bc565b6040519080825280601f01601f191660200182016040528015610f90576020820181803683370190505b5090505b8415610be057610fa56001836118e3565b9150610fb2600a8661198e565b610fbd9060306118fa565b60f81b818381518110610fd257610fd261186d565b60200101906001600160f81b031916908160001a905350610ff4600a8661197a565b9450610f94565b60006001600160e01b031982166380ac58cd60e01b148061102c57506001600160e01b03198216635b5e139f60e01b145b806102f957506301ffc9a760e01b6001600160e01b03198316146102f9565b61053c838383611196565b611060838361124e565b61106d6000848484611089565b61053c5760405162461bcd60e51b815260040161040690611912565b60006001600160a01b0384163b1561118b57604051630a85bd0160e11b81526001600160a01b0385169063150b7a02906110cd9033908990889088906004016119a2565b602060405180830381600087803b1580156110e757600080fd5b505af1925050508015611117575060408051601f3d908101601f19168201909252611114918101906119df565b60015b611171573d808015611145576040519150601f19603f3d011682016040523d82523d6000602084013e61114a565b606091505b5080516111695760405162461bcd60e51b815260040161040690611912565b805181602001fd5b6001600160e01b031916630a85bd0160e11b149050610be0565b506001949350505050565b6001600160a01b0383166111f1576111ec81600880546000838152600960205260408120829055600182018355919091527ff3f7a9fe364faab93b216da50a3214154f22a0a2b415b23a84c8169e8b636ee30155565b611214565b816001600160a01b0316836001600160a01b03161461121457611214838261139c565b6001600160a01b03821661122b5761053c81611439565b826001600160a01b0316826001600160a01b03161461053c5761053c82826114e8565b6001600160a01b0382166112a45760405162461bcd60e51b815260206004820181905260248201527f4552433732313a206d696e7420746f20746865207a65726f20616464726573736044820152606401610406565b6000818152600260205260409020546001600160a01b0316156113095760405162461bcd60e51b815260206004820152601c60248201527f4552433732313a20746f6b656e20616c7265616479206d696e746564000000006044820152606401610406565b6113156000838361104b565b6001600160a01b038216600090815260036020526040812080546001929061133e9084906118fa565b909155505060008181526002602052604080822080546001600160a01b0319166001600160a01b03861690811790915590518392907fddf252ad1be2c89b69c2b068fc378daa952ba7f163c4a11628f55a4df523b3ef908290a45050565b600060016113a98461072d565b6113b391906118e3565b600083815260076020526040902054909150808214611406576001600160a01b03841660009081526006602090815260408083208584528252808320548484528184208190558352600790915290208190555b5060009182526007602090815260408084208490556001600160a01b039094168352600681528383209183525290812055565b60085460009061144b906001906118e3565b600083815260096020526040812054600880549394509092849081106114735761147361186d565b9060005260206000200154905080600883815481106114945761149461186d565b60009182526020808320909101929092558281526009909152604080822084905585825281205560088054806114cc576114cc6119fc565b6001900381819060005260206000200160009055905550505050565b60006114f38361072d565b6001600160a01b039093166000908152600660209081526040808320868452825280832085905593825260079052919091209190915550565b6001600160e01b031981168114610a5b57600080fd5b60006020828403121561155457600080fd5b813561098c8161152c565b60005b8381101561157a578181015183820152602001611562565b838111156108a55750506000910152565b600081518084526115a381602086016020860161155f565b601f01601f19169290920160200192915050565b60208152600061098c602083018461158b565b6000602082840312156115dc57600080fd5b5035919050565b80356001600160a01b03811681146115fa57600080fd5b919050565b6000806040838503121561161257600080fd5b61161b836115e3565b946020939093013593505050565b60008060006060848603121561163e57600080fd5b611647846115e3565b9250611655602085016115e3565b9150604084013590509250925092565b60006020828403121561167757600080fd5b61098c826115e3565b6000806040838503121561169357600080fd5b61169c836115e3565b9150602083013580151581146116b157600080fd5b809150509250929050565b634e487b7160e01b600052604160045260246000fd5b600080600080608085870312156116e857600080fd5b6116f1856115e3565b93506116ff602086016115e3565b925060408501359150606085013567ffffffffffffffff8082111561172357600080fd5b818701915087601f83011261173757600080fd5b813581811115611749576117496116bc565b604051601f8201601f19908116603f01168101908382118183101715611771576117716116bc565b816040528281528a602084870101111561178a57600080fd5b82602086016020830137600060208483010152809550505050505092959194509250565b600080604083850312156117c157600080fd5b6117ca836115e3565b91506117d8602084016115e3565b90509250929050565b600181811c908216806117f557607f821691505b6020821081141561181657634e487b7160e01b600052602260045260246000fd5b50919050565b60208082526031908201527f4552433732313a207472616e736665722063616c6c6572206973206e6f74206f6040820152701ddb995c881b9bdc88185c1c1c9bdd9959607a1b606082015260800190565b634e487b7160e01b600052603260045260246000fd5b634e487b7160e01b600052601160045260246000fd5b60006000198214156118ad576118ad611883565b5060010190565b600083516118c681846020880161155f565b8351908301906118da81836020880161155f565b01949350505050565b6000828210156118f5576118f5611883565b500390565b6000821982111561190d5761190d611883565b500190565b60208082526032908201527f4552433732313a207472616e7366657220746f206e6f6e20455243373231526560408201527131b2b4bb32b91034b6b83632b6b2b73a32b960711b606082015260800190565b634e487b7160e01b600052601260045260246000fd5b60008261198957611989611964565b500490565b60008261199d5761199d611964565b500690565b6001600160a01b03858116825284166020820152604081018390526080606082018190526000906119d59083018461158b565b9695505050505050565b6000602082840312156119f157600080fd5b815161098c8161152c565b634e487b7160e01b600052603160045260246000fdfea2646970667358221220170f6c73561d03afc4ffe6f5b296afc519681611cc3caac37475f6bb51e5e5eb64736f6c63430008090033",
  "linkReferences": {},
  "deployedLinkReferences": {}
}