{
  "_format": "hh-sol-artifact-1",
  "contractName": "TokenTransferProxy",
  "sourceName": "contracts/registry/TokenTransferProxy.sol",
  "abi": [
    {
      "inputs": [
        {
          "internalType": "contract ProxyRegistry",
          "name": "registryAddr",
          "type": "address"
        }
      ],
      "stateMutability": "nonpayable",
      "type": "constructor"
    },
    {
      "inputs": [],
      "name": "registry",
      "outputs": [
        {
          "internalType": "contract ProxyRegistry",
          "name": "",
          "type": "address"
        }
      ],
      "stateMutability": "view",
      "type": "function"
    },
    {
      "inputs": [
        {
          "internalType": "address",
          "name": "token",
          "type": "address"
        },
        {
          "internalType": "address",
          "name": "from",
          "type": "address"
        },
        {
          "internalType": "address",
          "name": "to",
          "type": "address"
        },
        {
          "internalType": "uint256",
          "name": "amount",
          "type": "uint256"
        }
      ],
      "name": "transferFrom",
      "outputs": [],
      "stateMutability": "nonpayable",
      "type": "function"
    }
  ],
  "bytecode": "0x608060405234801561001057600080fd5b5060405161058d38038061058d83398101604081905261002f91610054565b600080546001600160a01b0319166001600160a01b0392909216919091179055610084565b60006020828403121561006657600080fd5b81516001600160a01b038116811461007d57600080fd5b9392505050565b6104fa806100936000396000f3fe608060405234801561001057600080fd5b50600436106100365760003560e01c806315dacbea1461003b5780637b10399914610050575b600080fd5b61004e6100493660046103dc565b61007f565b005b600054610063906001600160a01b031681565b6040516001600160a01b03909116815260200160405180910390f35b6000546040516369dc9ff360e01b81523360048201526001600160a01b03909116906369dc9ff39060240160206040518083038186803b1580156100c257600080fd5b505afa1580156100d6573d6000803e3d6000fd5b505050506040513d601f19601f820116820180604052508101906100fa9190610427565b61010357600080fd5b6101186001600160a01b03851684848461011e565b50505050565b604080516001600160a01b038581166024830152848116604483015260648083018590528351808403909101815260849092018352602080830180516001600160e01b03166323b872dd60e01b17905283518085019094528084527f5361666545524332303a206c6f772d6c6576656c2063616c6c206661696c656490840152610118928792916000916101b691851690849061023d565b80519091501561023857808060200190518101906101d49190610427565b6102385760405162461bcd60e51b815260206004820152602a60248201527f5361666545524332303a204552433230206f7065726174696f6e20646964206e6044820152691bdd081cdd58d8d9595960b21b60648201526084015b60405180910390fd5b505050565b606061024c8484600085610256565b90505b9392505050565b6060824710156102b75760405162461bcd60e51b815260206004820152602660248201527f416464726573733a20696e73756666696369656e742062616c616e636520666f6044820152651c8818d85b1b60d21b606482015260840161022f565b6001600160a01b0385163b61030e5760405162461bcd60e51b815260206004820152601d60248201527f416464726573733a2063616c6c20746f206e6f6e2d636f6e7472616374000000604482015260640161022f565b600080866001600160a01b0316858760405161032a9190610475565b60006040518083038185875af1925050503d8060008114610367576040519150601f19603f3d011682016040523d82523d6000602084013e61036c565b606091505b509150915061037c828286610387565b979650505050505050565b6060831561039657508161024f565b8251156103a65782518084602001fd5b8160405162461bcd60e51b815260040161022f9190610491565b80356001600160a01b03811681146103d757600080fd5b919050565b600080600080608085870312156103f257600080fd5b6103fb856103c0565b9350610409602086016103c0565b9250610417604086016103c0565b9396929550929360600135925050565b60006020828403121561043957600080fd5b8151801515811461024f57600080fd5b60005b8381101561046457818101518382015260200161044c565b838111156101185750506000910152565b60008251610487818460208701610449565b9190910192915050565b60208152600082518060208401526104b0816040850160208701610449565b601f01601f1916919091016040019291505056fea2646970667358221220b71410c0a9bb2da861ecc36d28a8912094b22695e2765ff753684709e1afd3e164736f6c63430008090033",
  "linkReferences": {},
  "deployedLinkReferences": {}
}