{
  "_format": "hh-sol-artifact-1",
  "contractName": "TokenRecipient",
  "sourceName": "contracts/common/TokenRecipient.sol",
  "abi": [
    {
      "anonymous": false,
      "inputs": [
        {
          "indexed": true,
          "internalType": "address",
          "name": "sender",
          "type": "address"
        },
        {
          "indexed": false,
          "internalType": "uint256",
          "name": "amount",
          "type": "uint256"
        }
      ],
      "name": "ReceivedEther",
      "type": "event"
    },
    {
      "anonymous": false,
      "inputs": [
        {
          "indexed": true,
          "internalType": "address",
          "name": "from",
          "type": "address"
        },
        {
          "indexed": false,
          "internalType": "uint256",
          "name": "value",
          "type": "uint256"
        },
        {
          "indexed": true,
          "internalType": "address",
          "name": "token",
          "type": "address"
        },
        {
          "indexed": false,
          "internalType": "bytes",
          "name": "extraData",
          "type": "bytes"
        }
      ],
      "name": "ReceivedTokens",
      "type": "event"
    },
    {
      "inputs": [
        {
          "internalType": "address",
          "name": "from",
          "type": "address"
        },
        {
          "internalType": "uint256",
          "name": "value",
          "type": "uint256"
        },
        {
          "internalType": "address",
          "name": "token",
          "type": "address"
        },
        {
          "internalType": "bytes",
          "name": "extraData",
          "type": "bytes"
        }
      ],
      "name": "receiveApproval",
      "outputs": [],
      "stateMutability": "nonpayable",
      "type": "function"
    },
    {
      "stateMutability": "payable",
      "type": "receive"
    }
  ],
  "bytecode": "0x608060405234801561001057600080fd5b506105b4806100206000396000f3fe6080604052600436106100225760003560e01c80638f4ffcb11461006357600080fd5b3661005e5760405134815233907fa419615bc8fda4c87663805ee2a3597a6d71c1d476911d9892f340d965bc7bf19060200160405180910390a2005b600080fd5b34801561006f57600080fd5b5061008361007e3660046103e0565b610085565b005b8161009b6001600160a01b0382168630876100ef565b826001600160a01b0316856001600160a01b03167fd65b48fd35864b3528d38e44760be5553248f89bf3ff6b06cca57817cc2650bf86856040516100e0929190610514565b60405180910390a35050505050565b604080516001600160a01b0385811660248301528416604482015260648082018490528251808303909101815260849091019091526020810180516001600160e01b03166323b872dd60e01b17905261014990859061014f565b50505050565b60006101a4826040518060400160405280602081526020017f5361666545524332303a206c6f772d6c6576656c2063616c6c206661696c6564815250856001600160a01b031661022b9092919063ffffffff16565b80519091501561022657808060200190518101906101c2919061052d565b6102265760405162461bcd60e51b815260206004820152602a60248201527f5361666545524332303a204552433230206f7065726174696f6e20646964206e6044820152691bdd081cdd58d8d9595960b21b60648201526084015b60405180910390fd5b505050565b606061023a8484600085610244565b90505b9392505050565b6060824710156102a55760405162461bcd60e51b815260206004820152602660248201527f416464726573733a20696e73756666696369656e742062616c616e636520666f6044820152651c8818d85b1b60d21b606482015260840161021d565b6001600160a01b0385163b6102fc5760405162461bcd60e51b815260206004820152601d60248201527f416464726573733a2063616c6c20746f206e6f6e2d636f6e7472616374000000604482015260640161021d565b600080866001600160a01b03168587604051610318919061054f565b60006040518083038185875af1925050503d8060008114610355576040519150601f19603f3d011682016040523d82523d6000602084013e61035a565b606091505b509150915061036a828286610375565b979650505050505050565b6060831561038457508161023d565b8251156103945782518084602001fd5b8160405162461bcd60e51b815260040161021d919061056b565b80356001600160a01b03811681146103c557600080fd5b919050565b634e487b7160e01b600052604160045260246000fd5b600080600080608085870312156103f657600080fd5b6103ff856103ae565b935060208501359250610414604086016103ae565b9150606085013567ffffffffffffffff8082111561043157600080fd5b818701915087601f83011261044557600080fd5b813581811115610457576104576103ca565b604051601f8201601f19908116603f0116810190838211818310171561047f5761047f6103ca565b816040528281528a602084870101111561049857600080fd5b82602086016020830137600060208483010152809550505050505092959194509250565b60005b838110156104d75781810151838201526020016104bf565b838111156101495750506000910152565b600081518084526105008160208601602086016104bc565b601f01601f19169290920160200192915050565b82815260406020820152600061023a60408301846104e8565b60006020828403121561053f57600080fd5b8151801515811461023d57600080fd5b600082516105618184602087016104bc565b9190910192915050565b60208152600061023d60208301846104e856fea2646970667358221220816221ed3ec949f77cf369a55820a8866bf80784c56c660dc05f97fe044e614064736f6c63430008090033",
  "linkReferences": {},
  "deployedLinkReferences": {}
}