{
  "_format": "hh-sol-artifact-1",
  "contractName": "ExchangeTest",
  "sourceName": "contracts/test/ExchangeTest.sol",
  "abi": [
    {
      "anonymous": false,
      "inputs": [
        {
          "indexed": true,
          "internalType": "address",
          "name": "previousOwner",
          "type": "address"
        },
        {
          "indexed": true,
          "internalType": "address",
          "name": "newOwner",
          "type": "address"
        }
      ],
      "name": "OwnershipTransferred",
      "type": "event"
    },
    {
      "inputs": [],
      "name": "GetTime",
      "outputs": [
        {
          "internalType": "uint256",
          "name": "",
          "type": "uint256"
        }
      ],
      "stateMutability": "view",
      "type": "function"
    },
    {
      "inputs": [
        {
          "internalType": "address[14]",
          "name": "addrs",
          "type": "address[14]"
        },
        {
          "internalType": "uint256[18]",
          "name": "uints",
          "type": "uint256[18]"
        },
        {
          "internalType": "uint8[8]",
          "name": "feeMethodsSidesKindsHowToCalls",
          "type": "uint8[8]"
        },
        {
          "internalType": "bytes",
          "name": "calldataBuy",
          "type": "bytes"
        },
        {
          "internalType": "bytes",
          "name": "calldataSell",
          "type": "bytes"
        },
        {
          "internalType": "bytes",
          "name": "replacementPatternBuy",
          "type": "bytes"
        },
        {
          "internalType": "bytes",
          "name": "replacementPatternSell",
          "type": "bytes"
        },
        {
          "internalType": "bytes",
          "name": "staticExtradataBuy",
          "type": "bytes"
        },
        {
          "internalType": "bytes",
          "name": "staticExtradataSell",
          "type": "bytes"
        }
      ],
      "name": "ordersCanMatch_",
      "outputs": [
        {
          "internalType": "uint256",
          "name": "",
          "type": "uint256"
        }
      ],
      "stateMutability": "view",
      "type": "function"
    },
    {
      "inputs": [],
      "name": "owner",
      "outputs": [
        {
          "internalType": "address",
          "name": "",
          "type": "address"
        }
      ],
      "stateMutability": "view",
      "type": "function"
    },
    {
      "inputs": [],
      "name": "renounceOwnership",
      "outputs": [],
      "stateMutability": "nonpayable",
      "type": "function"
    },
    {
      "inputs": [
        {
          "internalType": "address",
          "name": "newOwner",
          "type": "address"
        }
      ],
      "name": "transferOwnership",
      "outputs": [],
      "stateMutability": "nonpayable",
      "type": "function"
    }
  ],
  "bytecode": "0x608060405234801561001057600080fd5b50600160005561001f33610024565b610076565b600180546001600160a01b038381166001600160a01b0319831681179093556040519116919082907f8be0079c531659141344cd1fd0a4f28419497f9722a3daafe3b4186f6b6457e090600090a35050565b610df9806100856000396000f3fe608060405234801561001057600080fd5b50600436106100575760003560e01c806318c5e5021461005c578063715018a61461007157806372593b4c1461007b5780638da5cb5b1461008e578063f2fde38b146100a9575b600080fd5b425b6040519081526020015b60405180910390f35b6100796100bc565b005b61005e610089366004610c49565b610127565b6001546040516001600160a01b039091168152602001610068565b6100796100b7366004610d7c565b6106d2565b6001546001600160a01b0316331461011b5760405162461bcd60e51b815260206004820181905260248201527f4f776e61626c653a2063616c6c6572206973206e6f7420746865206f776e657260448201526064015b60405180910390fd5b610125600061079d565b565b600080604051806102e001604052808c6000600e811061014957610149610d97565b60200201516001600160a01b031681526020018c6001600e811061016f5761016f610d97565b60200201516001600160a01b031681526020018c6002600e811061019557610195610d97565b60200201516001600160a01b031681526020018b6000601281106101bb576101bb610d97565b602002015181526020018b6001601281106101d8576101d8610d97565b602002015181526020018b6002601281106101f5576101f5610d97565b602002015181526020018b60036012811061021257610212610d97565b602002015181526020018c6003600e811061022f5761022f610d97565b60200201516001600160a01b031681526020018a60006008811061025557610255610d97565b602002015160ff16600181111561026e5761026e610dad565b600181111561027f5761027f610dad565b81526020018a6001602002015160ff1660018111156102a0576102a0610dad565b60018111156102b1576102b1610dad565b81526020018a6002602002015160ff1660018111156102d2576102d2610dad565b60018111156102e3576102e3610dad565b815260808d01516001600160a01b031660208201526040018a6003602002015160ff16600181111561031757610317610dad565b600181111561032857610328610dad565b8152602081018a90526040810188905260a0808e01516001600160a01b0316606083015260808201879052018c600660200201516001600160a01b031681526020018b60046012811061037d5761037d610d97565b602002015181526020018b60056012811061039a5761039a610d97565b602002015181526020018b6006601281106103b7576103b7610d97565b602002015181526020018b6007601281106103d4576103d4610d97565b602002015181526020018b6008601281106103f1576103f1610d97565b602002015181525090506000604051806102e001604052808d6007600e811061041c5761041c610d97565b60200201516001600160a01b031681526020018d6008600e811061044257610442610d97565b60200201516001600160a01b031681526020018d6009600e811061046857610468610d97565b60200201516001600160a01b031681526020018c60096012811061048e5761048e610d97565b602002015181526020018c600a601281106104ab576104ab610d97565b602002015181526020018c600b601281106104c8576104c8610d97565b602002015181526020018c600c601281106104e5576104e5610d97565b602002015181526020018d600a600e811061050257610502610d97565b60200201516001600160a01b031681526020018b60046008811061052857610528610d97565b602002015160ff16600181111561054157610541610dad565b600181111561055257610552610dad565b81526020018b6005602002015160ff16600181111561057357610573610dad565b600181111561058457610584610dad565b81526020018b6006602002015160ff1660018111156105a5576105a5610dad565b60018111156105b6576105b6610dad565b81526101608e01516001600160a01b031660208201526040018b6007602002015160ff1660018111156105eb576105eb610dad565b60018111156105fc576105fc610dad565b8152602081018a9052604081018890526101808e01516001600160a01b039081166060830152608082018790526101a08f01511660a082015260c0018c600d602002015181526020018c600e6012811061065857610658610d97565b602002015181526020018c600f6012811061067557610675610d97565b602002015181526020018c60106012811061069257610692610d97565b602002015181526020018c6011601281106106af576106af610d97565b6020020151905290506106c282826107ef565b9c9b505050505050505050505050565b6001546001600160a01b0316331461072c5760405162461bcd60e51b815260206004820181905260248201527f4f776e61626c653a2063616c6c6572206973206e6f7420746865206f776e65726044820152606401610112565b6001600160a01b0381166107915760405162461bcd60e51b815260206004820152602660248201527f4f776e61626c653a206e6577206f776e657220697320746865207a65726f206160448201526564647265737360d01b6064820152608401610112565b61079a8161079d565b50565b600180546001600160a01b038381166001600160a01b0319831681179093556040519116919082907f8be0079c531659141344cd1fd0a4f28419497f9722a3daafe3b4186f6b6457e090600090a35050565b600080836101200151600181111561080957610809610dad565b14801561082c57506001826101200151600181111561082a5761082a610dad565b145b61083857506001610a1a565b816101000151600181111561084f5761084f610dad565b836101000151600181111561086657610866610dad565b1461087357506002610a1a565b61022080830151908401516001600160a01b0390811691161461089857506003610a1a565b60408201516001600160a01b031615806108cb575082602001516001600160a01b031682604001516001600160a01b0316145b6108d757506004610a1a565b60408301516001600160a01b0316158061090a575081602001516001600160a01b031683604001516001600160a01b0316145b61091657506005610a1a565b60e08201516001600160a01b031615801561093d575060e08301516001600160a01b031615155b8061096a575060e08201516001600160a01b03161580159061096a575060e08301516001600160a01b0316155b61097657506006610a1a565b61016080830151908401516001600160a01b0390811691161461099b57506007610a1a565b81610180015160018111156109b2576109b2610dad565b83610180015160018111156109c9576109c9610dad565b146109d657506008610a1a565b6109ea836102800151846102a00151610a20565b6109f657506009610a1a565b610a0a826102800151836102a00151610a20565b610a165750600a610a1a565b5060005b92915050565b60004283108015610a385750811580610a3857508142105b9392505050565b634e487b7160e01b600052604160045260246000fd5b80356001600160a01b0381168114610a6c57600080fd5b919050565b600082601f830112610a8257600080fd5b6040516101c080820182811067ffffffffffffffff82111715610aa757610aa7610a3f565b60405283018185821115610aba57600080fd5b845b82811015610adb57610acd81610a55565b825260209182019101610abc565b509195945050505050565b600082601f830112610af757600080fd5b60405161024080820182811067ffffffffffffffff82111715610b1c57610b1c610a3f565b60405283018185821115610b2f57600080fd5b845b82811015610adb578035825260209182019101610b31565b600082601f830112610b5a57600080fd5b60405161010080820182811067ffffffffffffffff82111715610b7f57610b7f610a3f565b60405283018185821115610b9257600080fd5b845b82811015610adb57803560ff81168114610bae5760008081fd5b825260209182019101610b94565b600082601f830112610bcd57600080fd5b813567ffffffffffffffff80821115610be857610be8610a3f565b604051601f8301601f19908116603f01168101908282118183101715610c1057610c10610a3f565b81604052838152866020858801011115610c2957600080fd5b836020870160208301376000602085830101528094505050505092915050565b60008060008060008060008060006105c08a8c031215610c6857600080fd5b610c728b8b610a71565b9850610c828b6101c08c01610ae6565b9750610c928b6104008c01610b49565b96506105008a013567ffffffffffffffff80821115610cb057600080fd5b610cbc8d838e01610bbc565b97506105208c0135915080821115610cd357600080fd5b610cdf8d838e01610bbc565b96506105408c0135915080821115610cf657600080fd5b610d028d838e01610bbc565b95506105608c0135915080821115610d1957600080fd5b610d258d838e01610bbc565b94506105808c0135915080821115610d3c57600080fd5b610d488d838e01610bbc565b93506105a08c0135915080821115610d5f57600080fd5b50610d6c8c828d01610bbc565b9150509295985092959850929598565b600060208284031215610d8e57600080fd5b610a3882610a55565b634e487b7160e01b600052603260045260246000fd5b634e487b7160e01b600052602160045260246000fdfea2646970667358221220b600fa7be01dd4039e76fb3d4c28d970689e4a1e154d82ae97dd6f3cf3f5e86764736f6c63430008090033",
  "linkReferences": {},
  "deployedLinkReferences": {}
}