{
  "_format": "hh-sol-artifact-1",
  "contractName": "AuthenticatedProxy",
  "sourceName": "contracts/registry/AuthenticatedProxy.sol",
  "abi": [
    {
      "inputs": [
        {
          "internalType": "address",
          "name": "addrUser",
          "type": "address"
        },
        {
          "internalType": "contract ProxyRegistry",
          "name": "addrRegistry",
          "type": "address"
        }
      ],
      "stateMutability": "nonpayable",
      "type": "constructor"
    },
    {
      "anonymous": false,
      "inputs": [
        {
          "indexed": true,
          "internalType": "address",
          "name": "sender",
          "type": "address"
        },
        {
          "indexed": false,
          "internalType": "uint256",
          "name": "amount",
          "type": "uint256"
        }
      ],
      "name": "ReceivedEther",
      "type": "event"
    },
    {
      "anonymous": false,
      "inputs": [
        {
          "indexed": true,
          "internalType": "address",
          "name": "from",
          "type": "address"
        },
        {
          "indexed": false,
          "internalType": "uint256",
          "name": "value",
          "type": "uint256"
        },
        {
          "indexed": true,
          "internalType": "address",
          "name": "token",
          "type": "address"
        },
        {
          "indexed": false,
          "internalType": "bytes",
          "name": "extraData",
          "type": "bytes"
        }
      ],
      "name": "ReceivedTokens",
      "type": "event"
    },
    {
      "anonymous": false,
      "inputs": [
        {
          "indexed": false,
          "internalType": "bool",
          "name": "revoked",
          "type": "bool"
        }
      ],
      "name": "Revoked",
      "type": "event"
    },
    {
      "inputs": [
        {
          "internalType": "address",
          "name": "dest",
          "type": "address"
        },
        {
          "internalType": "enum AuthenticatedProxy.HowToCall",
          "name": "howToCall",
          "type": "uint8"
        },
        {
          "internalType": "bytes",
          "name": "calldatas",
          "type": "bytes"
        }
      ],
      "name": "proxy",
      "outputs": [
        {
          "internalType": "bool",
          "name": "result",
          "type": "bool"
        }
      ],
      "stateMutability": "nonpayable",
      "type": "function"
    },
    {
      "inputs": [
        {
          "internalType": "address",
          "name": "from",
          "type": "address"
        },
        {
          "internalType": "uint256",
          "name": "value",
          "type": "uint256"
        },
        {
          "internalType": "address",
          "name": "token",
          "type": "address"
        },
        {
          "internalType": "bytes",
          "name": "extraData",
          "type": "bytes"
        }
      ],
      "name": "receiveApproval",
      "outputs": [],
      "stateMutability": "nonpayable",
      "type": "function"
    },
    {
      "inputs": [],
      "name": "registry",
      "outputs": [
        {
          "internalType": "contract ProxyRegistry",
          "name": "",
          "type": "address"
        }
      ],
      "stateMutability": "view",
      "type": "function"
    },
    {
      "inputs": [],
      "name": "revoked",
      "outputs": [
        {
          "internalType": "bool",
          "name": "",
          "type": "bool"
        }
      ],
      "stateMutability": "view",
      "type": "function"
    },
    {
      "inputs": [
        {
          "internalType": "bool",
          "name": "revoke",
          "type": "bool"
        }
      ],
      "name": "setRevoke",
      "outputs": [],
      "stateMutability": "nonpayable",
      "type": "function"
    },
    {
      "inputs": [],
      "name": "user",
      "outputs": [
        {
          "internalType": "address",
          "name": "",
          "type": "address"
        }
      ],
      "stateMutability": "view",
      "type": "function"
    },
    {
      "stateMutability": "payable",
      "type": "receive"
    }
  ],
  "bytecode": "0x608060405234801561001057600080fd5b50604051610b29380380610b2983398101604081905261002f91610078565b600080546001600160a01b039384166001600160a01b031991821617909155600180549290931691161790556100b2565b6001600160a01b038116811461007557600080fd5b50565b6000806040838503121561008b57600080fd5b825161009681610060565b60208401519092506100a781610060565b809150509250929050565b610a68806100c16000396000f3fe6080604052600436106100595760003560e01c80631b0f7ba91461009a5780634c93505f146100cf5780634f8632ba146100f157806363d256ce146101295780637b1039991461014a5780638f4ffcb11461016a57600080fd5b366100955760405134815233907fa419615bc8fda4c87663805ee2a3597a6d71c1d476911d9892f340d965bc7bf19060200160405180910390a2005b600080fd5b3480156100a657600080fd5b506100ba6100b536600461083e565b61018a565b60405190151581526020015b60405180910390f35b3480156100db57600080fd5b506100ef6100ea3660046108b3565b6102a5565b005b3480156100fd57600080fd5b50600054610111906001600160a01b031681565b6040516001600160a01b0390911681526020016100c6565b34801561013557600080fd5b506001546100ba90600160a01b900460ff1681565b34801561015657600080fd5b50600154610111906001600160a01b031681565b34801561017657600080fd5b506100ef6101853660046108d0565b610314565b600080546001600160a01b031633148061022f5750600154600160a01b900460ff1615801561022f57506001546040516369dc9ff360e01b81523360048201526001600160a01b03909116906369dc9ff39060240160206040518083038186803b1580156101f757600080fd5b505afa15801561020b573d6000803e3d6000fd5b505050506040513d601f19601f8201168201806040525081019061022f9190610938565b61023857600080fd5b600083600181111561024c5761024c610955565b141561026b576102656001600160a01b0385168361037e565b5061029a565b600183600181111561027f5761027f610955565b141561029a576102986001600160a01b038516836103c0565b505b5060015b9392505050565b6000546001600160a01b031633146102bc57600080fd5b60018054821515600160a01b0260ff60a01b199091161790556040517f2165014523a6f4135deffed62d70149aad59b64de5aac51e3abbcbe2a83e2f7e9061030990831515815260200190565b60405180910390a150565b8161032a6001600160a01b0382168630876103e5565b826001600160a01b0316856001600160a01b03167fd65b48fd35864b3528d38e44760be5553248f89bf3ff6b06cca57817cc2650bf868560405161036f9291906109c3565b60405180910390a35050505050565b606061029e83836040518060400160405280601e81526020017f416464726573733a206c6f772d6c6576656c2063616c6c206661696c65640000815250610445565b606061029e8383604051806060016040528060278152602001610a0c6027913961045c565b604080516001600160a01b0385811660248301528416604482015260648082018490528251808303909101815260849091019091526020810180516001600160e01b03166323b872dd60e01b17905261043f90859061053e565b50505050565b60606104548484600085610615565b949350505050565b60606001600160a01b0384163b6104c95760405162461bcd60e51b815260206004820152602660248201527f416464726573733a2064656c65676174652063616c6c20746f206e6f6e2d636f6044820152651b9d1c9858dd60d21b60648201526084015b60405180910390fd5b600080856001600160a01b0316856040516104e491906109dc565b600060405180830381855af49150503d806000811461051f576040519150601f19603f3d011682016040523d82523d6000602084013e610524565b606091505b5091509150610534828286610746565b9695505050505050565b6000610593826040518060400160405280602081526020017f5361666545524332303a206c6f772d6c6576656c2063616c6c206661696c6564815250856001600160a01b03166104459092919063ffffffff16565b80519091501561061057808060200190518101906105b19190610938565b6106105760405162461bcd60e51b815260206004820152602a60248201527f5361666545524332303a204552433230206f7065726174696f6e20646964206e6044820152691bdd081cdd58d8d9595960b21b60648201526084016104c0565b505050565b6060824710156106765760405162461bcd60e51b815260206004820152602660248201527f416464726573733a20696e73756666696369656e742062616c616e636520666f6044820152651c8818d85b1b60d21b60648201526084016104c0565b6001600160a01b0385163b6106cd5760405162461bcd60e51b815260206004820152601d60248201527f416464726573733a2063616c6c20746f206e6f6e2d636f6e747261637400000060448201526064016104c0565b600080866001600160a01b031685876040516106e991906109dc565b60006040518083038185875af1925050503d8060008114610726576040519150601f19603f3d011682016040523d82523d6000602084013e61072b565b606091505b509150915061073b828286610746565b979650505050505050565b6060831561075557508161029e565b8251156107655782518084602001fd5b8160405162461bcd60e51b81526004016104c091906109f8565b80356001600160a01b038116811461079657600080fd5b919050565b634e487b7160e01b600052604160045260246000fd5b600082601f8301126107c257600080fd5b813567ffffffffffffffff808211156107dd576107dd61079b565b604051601f8301601f19908116603f011681019082821181831017156108055761080561079b565b8160405283815286602085880101111561081e57600080fd5b836020870160208301376000602085830101528094505050505092915050565b60008060006060848603121561085357600080fd5b61085c8461077f565b925060208401356002811061087057600080fd5b9150604084013567ffffffffffffffff81111561088c57600080fd5b610898868287016107b1565b9150509250925092565b80151581146108b057600080fd5b50565b6000602082840312156108c557600080fd5b813561029e816108a2565b600080600080608085870312156108e657600080fd5b6108ef8561077f565b9350602085013592506109046040860161077f565b9150606085013567ffffffffffffffff81111561092057600080fd5b61092c878288016107b1565b91505092959194509250565b60006020828403121561094a57600080fd5b815161029e816108a2565b634e487b7160e01b600052602160045260246000fd5b60005b8381101561098657818101518382015260200161096e565b8381111561043f5750506000910152565b600081518084526109af81602086016020860161096b565b601f01601f19169290920160200192915050565b8281526040602082015260006104546040830184610997565b600082516109ee81846020870161096b565b9190910192915050565b60208152600061029e602083018461099756fe416464726573733a206c6f772d6c6576656c2064656c65676174652063616c6c206661696c6564a2646970667358221220fd974eca100cd5a4a9e11db009680be182844274b48fb7274bf32e893eab6edc64736f6c63430008090033",
  "linkReferences": {},
  "deployedLinkReferences": {}
}